{
  "address": "0x9aaD4719E6466835cb5B6c474450B20482DA672e",
  "abi": [
    {
      "inputs": [],
      "stateMutability": "nonpayable",
      "type": "constructor"
    },
    {
      "inputs": [],
      "name": "NotAuthorized",
      "type": "error"
    },
    {
      "inputs": [],
      "name": "NotParentCertOwner",
      "type": "error"
    },
    {
      "inputs": [],
      "name": "NotSameLength",
      "type": "error"
    },
    {
      "inputs": [],
      "name": "NotSameRecitation",
      "type": "error"
    },
    {
      "inputs": [],
      "name": "NotValidIssueTime",
      "type": "error"
    },
    {
      "inputs": [],
      "name": "ZeroAddress",
      "type": "error"
    },
    {
      "anonymous": false,
      "inputs": [
        {
          "indexed": true,
          "internalType": "address",
          "name": "owner",
          "type": "address"
        },
        {
          "indexed": true,
          "internalType": "address",
          "name": "approved",
          "type": "address"
        },
        {
          "indexed": true,
          "internalType": "uint256",
          "name": "tokenId",
          "type": "uint256"
        }
      ],
      "name": "Approval",
      "type": "event"
    },
    {
      "anonymous": false,
      "inputs": [
        {
          "indexed": true,
          "internalType": "address",
          "name": "owner",
          "type": "address"
        },
        {
          "indexed": true,
          "internalType": "address",
          "name": "operator",
          "type": "address"
        },
        {
          "indexed": false,
          "internalType": "bool",
          "name": "approved",
          "type": "bool"
        }
      ],
      "name": "ApprovalForAll",
      "type": "event"
    },
    {
      "anonymous": false,
      "inputs": [
        {
          "indexed": true,
          "internalType": "address",
          "name": "to",
          "type": "address"
        },
        {
          "indexed": false,
          "internalType": "address",
          "name": "from",
          "type": "address"
        },
        {
          "indexed": true,
          "internalType": "uint256",
          "name": "parentCertId",
          "type": "uint256"
        },
        {
          "indexed": true,
          "internalType": "uint256",
          "name": "id",
          "type": "uint256"
        },
        {
          "indexed": false,
          "internalType": "enum IEjaza.Recitations",
          "name": "recitation",
          "type": "uint8"
        }
      ],
      "name": "EjazaIssued",
      "type": "event"
    },
    {
      "anonymous": false,
      "inputs": [
        {
          "indexed": true,
          "internalType": "address",
          "name": "previousOwner",
          "type": "address"
        },
        {
          "indexed": true,
          "internalType": "address",
          "name": "newOwner",
          "type": "address"
        }
      ],
      "name": "OwnershipTransferred",
      "type": "event"
    },
    {
      "anonymous": false,
      "inputs": [
        {
          "indexed": true,
          "internalType": "address",
          "name": "from",
          "type": "address"
        },
        {
          "indexed": true,
          "internalType": "address",
          "name": "to",
          "type": "address"
        },
        {
          "indexed": true,
          "internalType": "uint256",
          "name": "tokenId",
          "type": "uint256"
        }
      ],
      "name": "Transfer",
      "type": "event"
    },
    {
      "inputs": [
        {
          "internalType": "address",
          "name": "to",
          "type": "address"
        },
        {
          "internalType": "uint256",
          "name": "tokenId",
          "type": "uint256"
        }
      ],
      "name": "approve",
      "outputs": [],
      "stateMutability": "nonpayable",
      "type": "function"
    },
    {
      "inputs": [
        {
          "internalType": "address",
          "name": "owner",
          "type": "address"
        }
      ],
      "name": "balanceOf",
      "outputs": [
        {
          "internalType": "uint256",
          "name": "",
          "type": "uint256"
        }
      ],
      "stateMutability": "view",
      "type": "function"
    },
    {
      "inputs": [],
      "name": "counter",
      "outputs": [
        {
          "internalType": "uint256",
          "name": "",
          "type": "uint256"
        }
      ],
      "stateMutability": "view",
      "type": "function"
    },
    {
      "inputs": [
        {
          "internalType": "uint256",
          "name": "",
          "type": "uint256"
        }
      ],
      "name": "ejazaLink",
      "outputs": [
        {
          "internalType": "uint256",
          "name": "",
          "type": "uint256"
        }
      ],
      "stateMutability": "view",
      "type": "function"
    },
    {
      "inputs": [
        {
          "internalType": "uint256",
          "name": "tokenId",
          "type": "uint256"
        }
      ],
      "name": "getApproved",
      "outputs": [
        {
          "internalType": "address",
          "name": "",
          "type": "address"
        }
      ],
      "stateMutability": "view",
      "type": "function"
    },
    {
      "inputs": [
        {
          "internalType": "uint256",
          "name": "_ejazaId",
          "type": "uint256"
        }
      ],
      "name": "getRecitation",
      "outputs": [
        {
          "internalType": "enum IEjaza.Recitations",
          "name": "",
          "type": "uint8"
        }
      ],
      "stateMutability": "view",
      "type": "function"
    },
    {
      "inputs": [
        {
          "internalType": "address",
          "name": "owner",
          "type": "address"
        },
        {
          "internalType": "address",
          "name": "operator",
          "type": "address"
        }
      ],
      "name": "isApprovedForAll",
      "outputs": [
        {
          "internalType": "bool",
          "name": "",
          "type": "bool"
        }
      ],
      "stateMutability": "view",
      "type": "function"
    },
    {
      "inputs": [
        {
          "internalType": "uint256",
          "name": "",
          "type": "uint256"
        }
      ],
      "name": "isssuedEjaza",
      "outputs": [
        {
          "internalType": "enum IEjaza.Recitations",
          "name": "qiraa",
          "type": "uint8"
        },
        {
          "internalType": "uint256",
          "name": "issueTime",
          "type": "uint256"
        },
        {
          "internalType": "uint256",
          "name": "parentCertId",
          "type": "uint256"
        },
        {
          "internalType": "string",
          "name": "recodingURl",
          "type": "string"
        }
      ],
      "stateMutability": "view",
      "type": "function"
    },
    {
      "inputs": [
        {
          "internalType": "uint256",
          "name": "parentCertId_",
          "type": "uint256"
        },
        {
          "internalType": "string",
          "name": "recodingURl_",
          "type": "string"
        },
        {
          "internalType": "enum IEjaza.Recitations",
          "name": "qiraa_",
          "type": "uint8"
        },
        {
          "internalType": "address",
          "name": "from",
          "type": "address"
        },
        {
          "internalType": "address",
          "name": "to",
          "type": "address"
        }
      ],
      "name": "issueEjaza",
      "outputs": [
        {
          "internalType": "uint256",
          "name": "",
          "type": "uint256"
        }
      ],
      "stateMutability": "nonpayable",
      "type": "function"
    },
    {
      "inputs": [
        {
          "internalType": "address[]",
          "name": "_tos",
          "type": "address[]"
        },
        {
          "components": [
            {
              "internalType": "enum IEjaza.Recitations",
              "name": "qiraa",
              "type": "uint8"
            },
            {
              "internalType": "uint256",
              "name": "issueTime",
              "type": "uint256"
            },
            {
              "internalType": "uint256",
              "name": "parentCertId",
              "type": "uint256"
            },
            {
              "internalType": "string",
              "name": "recodingURl",
              "type": "string"
            }
          ],
          "internalType": "struct IEjaza.Ejaza[]",
          "name": "_legacyEjaza",
          "type": "tuple[]"
        }
      ],
      "name": "issueForLegacyEjaza",
      "outputs": [],
      "stateMutability": "nonpayable",
      "type": "function"
    },
    {
      "inputs": [],
      "name": "name",
      "outputs": [
        {
          "internalType": "string",
          "name": "",
          "type": "string"
        }
      ],
      "stateMutability": "view",
      "type": "function"
    },
    {
      "inputs": [],
      "name": "owner",
      "outputs": [
        {
          "internalType": "address",
          "name": "",
          "type": "address"
        }
      ],
      "stateMutability": "view",
      "type": "function"
    },
    {
      "inputs": [
        {
          "internalType": "uint256",
          "name": "tokenId",
          "type": "uint256"
        }
      ],
      "name": "ownerOf",
      "outputs": [
        {
          "internalType": "address",
          "name": "",
          "type": "address"
        }
      ],
      "stateMutability": "view",
      "type": "function"
    },
    {
      "inputs": [],
      "name": "renounceOwnership",
      "outputs": [],
      "stateMutability": "nonpayable",
      "type": "function"
    },
    {
      "inputs": [
        {
          "internalType": "address",
          "name": "from",
          "type": "address"
        },
        {
          "internalType": "address",
          "name": "to",
          "type": "address"
        },
        {
          "internalType": "uint256",
          "name": "tokenId",
          "type": "uint256"
        }
      ],
      "name": "safeTransferFrom",
      "outputs": [],
      "stateMutability": "nonpayable",
      "type": "function"
    },
    {
      "inputs": [
        {
          "internalType": "address",
          "name": "from",
          "type": "address"
        },
        {
          "internalType": "address",
          "name": "to",
          "type": "address"
        },
        {
          "internalType": "uint256",
          "name": "tokenId",
          "type": "uint256"
        },
        {
          "internalType": "bytes",
          "name": "data",
          "type": "bytes"
        }
      ],
      "name": "safeTransferFrom",
      "outputs": [],
      "stateMutability": "nonpayable",
      "type": "function"
    },
    {
      "inputs": [
        {
          "internalType": "address",
          "name": "operator",
          "type": "address"
        },
        {
          "internalType": "bool",
          "name": "approved",
          "type": "bool"
        }
      ],
      "name": "setApprovalForAll",
      "outputs": [],
      "stateMutability": "nonpayable",
      "type": "function"
    },
    {
      "inputs": [
        {
          "internalType": "address",
          "name": "_daoContract",
          "type": "address"
        }
      ],
      "name": "setDAO",
      "outputs": [],
      "stateMutability": "nonpayable",
      "type": "function"
    },
    {
      "inputs": [
        {
          "internalType": "bytes4",
          "name": "interfaceId",
          "type": "bytes4"
        }
      ],
      "name": "supportsInterface",
      "outputs": [
        {
          "internalType": "bool",
          "name": "",
          "type": "bool"
        }
      ],
      "stateMutability": "view",
      "type": "function"
    },
    {
      "inputs": [],
      "name": "symbol",
      "outputs": [
        {
          "internalType": "string",
          "name": "",
          "type": "string"
        }
      ],
      "stateMutability": "view",
      "type": "function"
    },
    {
      "inputs": [
        {
          "internalType": "uint256",
          "name": "tokenId",
          "type": "uint256"
        }
      ],
      "name": "tokenURI",
      "outputs": [
        {
          "internalType": "string",
          "name": "",
          "type": "string"
        }
      ],
      "stateMutability": "view",
      "type": "function"
    },
    {
      "inputs": [
        {
          "internalType": "address",
          "name": "from",
          "type": "address"
        },
        {
          "internalType": "address",
          "name": "to",
          "type": "address"
        },
        {
          "internalType": "uint256",
          "name": "tokenId",
          "type": "uint256"
        }
      ],
      "name": "transferFrom",
      "outputs": [],
      "stateMutability": "nonpayable",
      "type": "function"
    },
    {
      "inputs": [
        {
          "internalType": "address",
          "name": "newOwner",
          "type": "address"
        }
      ],
      "name": "transferOwnership",
      "outputs": [],
      "stateMutability": "nonpayable",
      "type": "function"
    }
  ],
  "transactionHash": "0xfdc75ef5afce04cf0c48b6fc1239193e5a6be619186db0d36313eb873fa2293f",
  "args": [],
  "numDeployments": 1,
  "solcInputHash": "d97d66bac201c1e27bfdab49244036be",
  "bytecode": "0x60806040523480156200001157600080fd5b50604051806040016040528060118152602001702430b334bd1022b530bd30902a37b5b2b760791b8152506040518060400160405280600381526020016212115560ea1b815250620000726200006c6200009860201b60201c565b6200009c565b600162000080838262000205565b5060026200008f828262000205565b505050620002d5565b3390565b600080546001600160a01b038381166001600160a01b0319831681178455604051919092169283917f8be0079c531659141344cd1fd0a4f28419497f9722a3daafe3b4186f6b6457e09190a35050565b634e487b7160e01b600052604160045260246000fd5b634e487b7160e01b600052602260045260246000fd5b6002810460018216806200012d57607f821691505b60208210810362000142576200014262000102565b50919050565b600062000159620001568381565b90565b92915050565b6200016a8362000148565b81546008840282811b60001990911b908116901990911617825550505050565b6000620001998184846200015f565b505050565b81811015620001bd57620001b46000826200018a565b6001016200019e565b5050565b601f82111562000199576000818152602090206020601f85010481016020851015620001ea5750805b620001fe6020601f8601048301826200019e565b5050505050565b81516001600160401b03811115620002215762000221620000ec565b6200022d825462000118565b6200023a828285620001c1565b6020601f831160018114620002715760008415620002585750858201515b600019600886021c1981166002860217865550620002cd565b600085815260208120601f198616915b82811015620002a3578885015182556020948501946001909201910162000281565b86831015620002c05784890151600019601f89166008021c191682555b6001600288020188555050505b505050505050565b61211b80620002e56000396000f3fe608060405234801561001057600080fd5b506004361061018d5760003560e01c806370a08231116100e3578063a22cb4651161008c578063e73a914c11610066578063e73a914c1461035a578063e985e9c51461036d578063f2fde38b146103a957600080fd5b8063a22cb46514610321578063b88d4fde14610334578063c87b56dd1461034757600080fd5b80638da5cb5b116100bd5780638da5cb5b146102f55780638f3db9881461030657806395d89b411461031957600080fd5b806370a08231146102b7578063715018a6146102ca5780637a7d9227146102d257600080fd5b806323b872dd1161014557806359a1c6881161011f57806359a1c6881461028857806361bc221a1461029b5780636352211e146102a457600080fd5b806323b872dd1461023557806328a20f5e1461024857806342842e0e1461027557600080fd5b8063081812fc11610176578063081812fc146101d0578063095ea7b3146101f057806318ea65fd1461020557600080fd5b806301ffc9a71461019257806306fdde03146101bb575b600080fd5b6101a56101a0366004611365565b6103bc565b6040516101b29190611390565b60405180910390f35b6101c3610459565b6040516101b291906113f4565b6101e36101de366004611416565b6104eb565b6040516101b29190611451565b6102036101fe366004611473565b610512565b005b610228610213366004611416565b60009081526009602052604090205460ff1690565b6040516101b291906114f9565b610203610243366004611507565b6105be565b610268610256366004611416565b600a6020526000908152604090205481565b6040516101b2919061155d565b610203610283366004611507565b6105ec565b610268610296366004611671565b610607565b61026860085481565b6101e36102b2366004611416565b610848565b6102686102c5366004611704565b61087d565b6102036108c1565b6102e56102e0366004611416565b6108d5565b6040516101b29493929190611725565b6000546001600160a01b03166101e3565b61020361031436600461192b565b61098c565b6101c3610be9565b61020361032f3660046119a6565b610bf8565b6102036103423660046119d9565b610c07565b6101c3610355366004611416565b610c35565b610203610368366004611704565b610ca9565b6101a561037b366004611a58565b6001600160a01b03918216600090815260066020908152604080832093909416825291909152205460ff1690565b6102036103b7366004611704565b610cf3565b60006001600160e01b031982167f80ac58cd00000000000000000000000000000000000000000000000000000000148061041f57506001600160e01b031982167f5b5e139f00000000000000000000000000000000000000000000000000000000145b8061045357507f01ffc9a7000000000000000000000000000000000000000000000000000000006001600160e01b03198316145b92915050565b60606001805461046890611aa1565b80601f016020809104026020016040519081016040528092919081815260200182805461049490611aa1565b80156104e15780601f106104b6576101008083540402835291602001916104e1565b820191906000526020600020905b8154815290600101906020018083116104c457829003601f168201915b5050505050905090565b60006104f682610d2d565b506000908152600560205260409020546001600160a01b031690565b600061051d82610848565b9050806001600160a01b0316836001600160a01b0316036105595760405162461bcd60e51b815260040161055090611b2a565b60405180910390fd5b336001600160a01b038216148061059357506001600160a01b038116600090815260066020908152604080832033845290915290205460ff165b6105af5760405162461bcd60e51b815260040161055090611b94565b6105b98383610d61565b505050565b6105c83382610ddc565b6105e45760405162461bcd60e51b815260040161055090611bfe565b6105b9600080fd5b6105b983838360405180602001604052806000815250610c07565b6007546000906001600160a01b0316336001600160a01b031614610657576040517fea8e4eb500000000000000000000000000000000000000000000000000000000815260040160405180910390fd5b826001600160a01b031661066a87610848565b6001600160a01b0316146106aa576040517f6d498aad00000000000000000000000000000000000000000000000000000000815260040160405180910390fd5b8360098111156106bc576106bc6114b0565b60008781526009602081905260409091205460ff16908111156106e1576106e16114b0565b14610718576040517febc3639d00000000000000000000000000000000000000000000000000000000815260040160405180910390fd5b600880546001019081905560408051602081019091526000815261073d918491610e5b565b6008546000908152600a6020526040908190208790558051608081019091528085600981111561076f5761076f6114b0565b81526020014281526020018781526020018681525060096000600854815260200190815260200160002060008201518160000160006101000a81548160ff021916908360098111156107c3576107c36114b0565b02179055506020820151600182015560408201516002820155606082015160038201906107f09082611cae565b5090505060085486836001600160a01b03167fc5eb36515745a5ebea3193ec3134046ab9c431fadb18f76eff5e044bf269bcd78688604051610833929190611d72565b60405180910390a45060085495945050505050565b6000818152600360205260408120546001600160a01b0316806104535760405162461bcd60e51b815260040161055090611dc4565b60006001600160a01b0382166108a55760405162461bcd60e51b815260040161055090611e2e565b506001600160a01b031660009081526004602052604090205490565b6108c9610e8e565b6108d36000610eb8565b565b600960205260009081526040902080546001820154600283015460038401805460ff90941694929391929161090990611aa1565b80601f016020809104026020016040519081016040528092919081815260200182805461093590611aa1565b80156109825780601f1061095757610100808354040283529160200191610982565b820191906000526020600020905b81548152906001019060200180831161096557829003601f168201915b5050505050905084565b610994610e8e565b8051825160009082146109d3576040517f200ad92c00000000000000000000000000000000000000000000000000000000815260040160405180910390fd5b81811015610be3578281815181106109ed576109ed611e3e565b602002602001015160200151600003610a32576040517fab75615c00000000000000000000000000000000000000000000000000000000815260040160405180910390fd5b6008805460010190558251839082908110610a4f57610a4f611e3e565b602002602001015160096000600854815260200190815260200160002060008201518160000160006101000a81548160ff02191690836009811115610a9657610a966114b0565b0217905550602082015160018201556040820151600282015560608201516003820190610ac39082611cae565b50905050610afc848281518110610adc57610adc611e3e565b602002602001015160085460405180602001604052806000815250610e5b565b828181518110610b0e57610b0e611e3e565b602002602001015160400151600a6000600854815260200190815260200160002081905550600854838281518110610b4857610b48611e3e565b602002602001015160400151858381518110610b6657610b66611e3e565b60200260200101516001600160a01b03167fc5eb36515745a5ebea3193ec3134046ab9c431fadb18f76eff5e044bf269bcd7610b9f3390565b878681518110610bb157610bb1611e3e565b602002602001015160000151604051610bcb929190611d72565b60405180910390a4610bdc81611e6a565b90506109d3565b50505050565b60606002805461046890611aa1565b610c03338383610f15565b5050565b610c113383610ddc565b610c2d5760405162461bcd60e51b815260040161055090611bfe565b610be3600080fd5b6060610c4082610d2d565b6000610c5760408051602081019091526000815290565b90506000815111610c775760405180602001604052806000815250610ca2565b80610c8184610fb7565b604051602001610c92929190611ea6565b6040516020818303038152906040525b9392505050565b610cb1610e8e565b6001600160a01b038116610cc457600080fd5b6007805473ffffffffffffffffffffffffffffffffffffffff19166001600160a01b0392909216919091179055565b610cfb610e8e565b6001600160a01b038116610d215760405162461bcd60e51b815260040161055090611f18565b610d2a81610eb8565b50565b6000818152600360205260409020546001600160a01b0316610d2a5760405162461bcd60e51b815260040161055090611dc4565b6000818152600560205260409020805473ffffffffffffffffffffffffffffffffffffffff19166001600160a01b0384169081179091558190610da382610848565b6001600160a01b03167f8c5be1e5ebec7d5bd14f71427d1e84f3dd0314c0f7b2291e5b200ac8c7c3b92560405160405180910390a45050565b600080610de883610848565b9050806001600160a01b0316846001600160a01b03161480610e2f57506001600160a01b0380821660009081526006602090815260408083209388168352929052205460ff165b80610e535750836001600160a01b0316610e48846104eb565b6001600160a01b0316145b949350505050565b610e658383611058565b610e726000848484611160565b6105b95760405162461bcd60e51b815260040161055090611f82565b6000546001600160a01b031633146108d35760405162461bcd60e51b815260040161055090611fc4565b600080546001600160a01b0383811673ffffffffffffffffffffffffffffffffffffffff19831681178455604051919092169283917f8be0079c531659141344cd1fd0a4f28419497f9722a3daafe3b4186f6b6457e09190a35050565b816001600160a01b0316836001600160a01b031603610f465760405162461bcd60e51b815260040161055090612008565b6001600160a01b0383811660008181526006602090815260408083209487168084529490915290819020805460ff1916851515179055517f17307eab39ab6107e8899845ad3d59bd9653f200f220920489ca2b5937696c3190610faa908590611390565b60405180910390a3505050565b60606000610fc483611261565b600101905060008167ffffffffffffffff811115610fe457610fe461156b565b6040519080825280601f01601f19166020018201604052801561100e576020820181803683370190505b5090508181016020015b600019017f3031323334353637383961626364656600000000000000000000000000000000600a86061a8153600a8504945084611018575b509392505050565b6001600160a01b03821661107e5760405162461bcd60e51b81526004016105509061204a565b6000818152600360205260409020546001600160a01b0316156110b35760405162461bcd60e51b81526004016105509061208e565b6000818152600360205260409020546001600160a01b0316156110e85760405162461bcd60e51b81526004016105509061208e565b6001600160a01b0382166000818152600460209081526040808320805460010190558483526003909152808220805473ffffffffffffffffffffffffffffffffffffffff19168417905551839291907fddf252ad1be2c89b69c2b068fc378daa952ba7f163c4a11628f55a4df523b3ef908290a45050565b60006001600160a01b0384163b1561125657604051630a85bd0160e11b81526001600160a01b0385169063150b7a02906111a490339089908890889060040161209e565b6020604051808303816000875af19250505080156111df575060408051601f3d908101601f191682019092526111dc918101906120c4565b60015b61123c573d80801561120d576040519150601f19603f3d011682016040523d82523d6000602084013e611212565b606091505b5080516000036112345760405162461bcd60e51b815260040161055090611f82565b805181602001fd5b6001600160e01b031916630a85bd0160e11b149050610e53565b506001949350505050565b6000807a184f03e93ff9f4daa797ed6e38ed64bf6a1f01000000000000000083106112aa577a184f03e93ff9f4daa797ed6e38ed64bf6a1f010000000000000000830492506040015b6d04ee2d6d415b85acef810000000083106112d6576d04ee2d6d415b85acef8100000000830492506020015b662386f26fc1000083106112f457662386f26fc10000830492506010015b6305f5e100831061130c576305f5e100830492506008015b612710831061132057612710830492506004015b60648310611332576064830492506002015b600a83106104535760010192915050565b6001600160e01b031981165b8114610d2a57600080fd5b803561045381611343565b60006020828403121561137a5761137a600080fd5b6000610e53848461135a565b8015155b82525050565b602081016104538284611386565b60005b838110156113b95781810151838201526020016113a1565b50506000910152565b60006113cc825190565b8084526020840193506113e381856020860161139e565b601f01601f19169290920192915050565b60208082528101610ca281846113c2565b8061134f565b803561045381611405565b60006020828403121561142b5761142b600080fd5b6000610e53848461140b565b60006001600160a01b038216610453565b61138a81611437565b602081016104538284611448565b61134f81611437565b80356104538161145f565b6000806040838503121561148957611489600080fd5b60006114958585611468565b92505060206114a68582860161140b565b9150509250929050565b634e487b7160e01b600052602160045260246000fd5b600a8110610d2a57610d2a6114b0565b806114e0816114c6565b919050565b6000610453826114d6565b61138a816114e5565b6020810161045382846114f0565b60008060006060848603121561151f5761151f600080fd5b600061152b8686611468565b935050602061153c86828701611468565b925050604061154d8682870161140b565b9150509250925092565b8061138a565b602081016104538284611557565b634e487b7160e01b600052604160045260246000fd5b601f19601f830116810181811067ffffffffffffffff821117156115a7576115a761156b565b6040525050565b60006115b960405190565b90506114e08282611581565b600067ffffffffffffffff8211156115df576115df61156b565b601f19601f83011660200192915050565b82818337506000910152565b600061160f61160a846115c5565b6115ae565b90508281526020810184848401111561162a5761162a600080fd5b6110508482856115f0565b600082601f83011261164957611649600080fd5b8135610e538482602086016115fc565b600a8110610d2a57600080fd5b803561045381611659565b600080600080600060a0868803121561168c5761168c600080fd5b6000611698888861140b565b955050602086013567ffffffffffffffff8111156116b8576116b8600080fd5b6116c488828901611635565b94505060406116d588828901611666565b93505060606116e688828901611468565b92505060806116f788828901611468565b9150509295509295909350565b60006020828403121561171957611719600080fd5b6000610e538484611468565b6080810161173382876114f0565b6117406020830186611557565b61174d6040830185611557565b818103606083015261175f81846113c2565b9695505050505050565b600067ffffffffffffffff8211156117835761178361156b565b5060209081020190565b600061179b61160a84611769565b838152905060208082019084028301858111156117ba576117ba600080fd5b835b818110156117de57806117cf8882611468565b845250602092830192016117bc565b5050509392505050565b600082601f8301126117fc576117fc600080fd5b8135610e5384826020860161178d565b60006080828403121561182157611821600080fd5b61182b60806115ae565b905060006118398484611666565b825250602061184a8484830161140b565b602083015250604061185e8482850161140b565b604083015250606082013567ffffffffffffffff81111561188157611881600080fd5b61188d84828501611635565b60608301525092915050565b60006118a761160a84611769565b838152905060208082019084028301858111156118c6576118c6600080fd5b835b818110156117de57803567ffffffffffffffff8111156118ea576118ea600080fd5b8086016118f7898261180c565b85525050602092830192016118c8565b600082601f83011261191b5761191b600080fd5b8135610e53848260208601611899565b6000806040838503121561194157611941600080fd5b823567ffffffffffffffff81111561195b5761195b600080fd5b611967858286016117e8565b925050602083013567ffffffffffffffff81111561198757611987600080fd5b6114a685828601611907565b80151561134f565b803561045381611993565b600080604083850312156119bc576119bc600080fd5b60006119c88585611468565b92505060206114a68582860161199b565b600080600080608085870312156119f2576119f2600080fd5b60006119fe8787611468565b9450506020611a0f87828801611468565b9350506040611a208782880161140b565b925050606085013567ffffffffffffffff811115611a4057611a40600080fd5b611a4c87828801611635565b91505092959194509250565b60008060408385031215611a6e57611a6e600080fd5b6000611a7a8585611468565b92505060206114a685828601611468565b634e487b7160e01b600052602260045260246000fd5b600281046001821680611ab557607f821691505b602082108103611ac757611ac7611a8b565b50919050565b602181526000602082017f4552433732313a20617070726f76616c20746f2063757272656e74206f776e6581527f7200000000000000000000000000000000000000000000000000000000000000602082015291505b5060400190565b6020808252810161045381611acd565b603d81526000602082017f4552433732313a20617070726f76652063616c6c6572206973206e6f7420746f81527f6b656e206f776e6572206f7220617070726f76656420666f7220616c6c00000060208201529150611b23565b6020808252810161045381611b3a565b602d81526000602082017f4552433732313a2063616c6c6572206973206e6f7420746f6b656e206f776e6581527f72206f7220617070726f7665640000000000000000000000000000000000000060208201529150611b23565b6020808252810161045381611ba4565b6000610453611c1a8381565b90565b611c2683611c0e565b81546008840282811b60001990911b908116901990911617825550505050565b60006105b9818484611c1d565b81811015610c0357611c66600082611c46565b600101611c53565b601f8211156105b9576000818152602090206020601f85010481016020851015611c955750805b611ca76020601f860104830182611c53565b5050505050565b815167ffffffffffffffff811115611cc857611cc861156b565b611cd28254611aa1565b611cdd828285611c6e565b6020601f831160018114611d115760008415611cf95750858201515b600019600886021c1981166002860217865550611d6a565b600085815260208120601f198616915b82811015611d415788850151825560209485019460019092019101611d21565b86831015611d5d5784890151600019601f89166008021c191682555b6001600288020188555050505b505050505050565b60408101611d808285611448565b610ca260208301846114f0565b601881526000602082017f4552433732313a20696e76616c696420746f6b656e2049440000000000000000815291505b5060200190565b6020808252810161045381611d8d565b602981526000602082017f4552433732313a2061646472657373207a65726f206973206e6f74206120766181527f6c6964206f776e6572000000000000000000000000000000000000000000000060208201529150611b23565b6020808252810161045381611dd4565b634e487b7160e01b600052603260045260246000fd5b634e487b7160e01b600052601160045260246000fd5b60006000198203611e7d57611e7d611e54565b5060010190565b6000611e8e825190565b611e9c81856020860161139e565b9290920192915050565b6000611eb28285611e84565b9150610e538284611e84565b602681526000602082017f4f776e61626c653a206e6577206f776e657220697320746865207a65726f206181527f646472657373000000000000000000000000000000000000000000000000000060208201529150611b23565b6020808252810161045381611ebe565b603281526000602082017f4552433732313a207472616e7366657220746f206e6f6e20455243373231526581527f63656976657220696d706c656d656e746572000000000000000000000000000060208201529150611b23565b6020808252810161045381611f28565b60208082527f4f776e61626c653a2063616c6c6572206973206e6f7420746865206f776e657291019081526000611dbd565b6020808252810161045381611f92565b601981526000602082017f4552433732313a20617070726f766520746f2063616c6c65720000000000000081529150611dbd565b6020808252810161045381611fd4565b60208082527f4552433732313a206d696e7420746f20746865207a65726f206164647265737391019081526000611dbd565b6020808252810161045381612018565b601c81526000602082017f4552433732313a20746f6b656e20616c7265616479206d696e7465640000000081529150611dbd565b602080825281016104538161205a565b608081016120ac8287611448565b6117406020830186611448565b805161045381611343565b6000602082840312156120d9576120d9600080fd5b6000610e5384846120b956fea264697066735822122066775728ea6068a981046bb75aa976061a3fae46b06c54fc3923a8be89a033bc64736f6c63430008110033",
  "devdoc": {
    "kind": "dev",
    "methods": {
      "approve(address,uint256)": {
        "details": "See {IERC721-approve}."
      },
      "balanceOf(address)": {
        "details": "See {IERC721-balanceOf}."
      },
      "getApproved(uint256)": {
        "details": "See {IERC721-getApproved}."
      },
      "getRecitation(uint256)": {
        "details": "Returns recitation of the ejaza.",
        "params": {
          "_ejazaId": ": Id of the ejaza."
        },
        "returns": {
          "_0": "Recitation of the ejaza."
        }
      },
      "isApprovedForAll(address,address)": {
        "details": "See {IERC721-isApprovedForAll}."
      },
      "name()": {
        "details": "See {IERC721Metadata-name}."
      },
      "owner()": {
        "details": "Returns the address of the current owner."
      },
      "ownerOf(uint256)": {
        "details": "See {IERC721-ownerOf}."
      },
      "renounceOwnership()": {
        "details": "Leaves the contract without owner. It will not be possible to call `onlyOwner` functions. Can only be called by the current owner. NOTE: Renouncing ownership will leave the contract without an owner, thereby disabling any functionality that is only available to the owner."
      },
      "safeTransferFrom(address,address,uint256)": {
        "details": "See {IERC721-safeTransferFrom}."
      },
      "safeTransferFrom(address,address,uint256,bytes)": {
        "details": "See {IERC721-safeTransferFrom}."
      },
      "setApprovalForAll(address,bool)": {
        "details": "See {IERC721-setApprovalForAll}."
      },
      "supportsInterface(bytes4)": {
        "details": "See {IERC165-supportsInterface}."
      },
      "symbol()": {
        "details": "See {IERC721Metadata-symbol}."
      },
      "tokenURI(uint256)": {
        "details": "See {IERC721Metadata-tokenURI}."
      },
      "transferFrom(address,address,uint256)": {
        "details": "See {IERC721-transferFrom}."
      },
      "transferOwnership(address)": {
        "details": "Transfers ownership of the contract to a new account (`newOwner`). Can only be called by the current owner."
      }
    },
    "version": 1
  },
  "userdoc": {
    "errors": {
      "NotValidIssueTime()": [
        {
          "notice": "if  _legacyEjaza[index].issueTime == 0 || _legacyEjaza[index].issueTime >= block.timestamp "
        }
      ]
    },
    "kind": "user",
    "methods": {},
    "version": 1
  },
  "storageLayout": {
    "storage": [
      {
        "astId": 428,
        "contract": "contracts/HafizEjaza.sol:HafizEjaza",
        "label": "_owner",
        "offset": 0,
        "slot": "0",
        "type": "t_address"
      },
      {
        "astId": 559,
        "contract": "contracts/HafizEjaza.sol:HafizEjaza",
        "label": "_name",
        "offset": 0,
        "slot": "1",
        "type": "t_string_storage"
      },
      {
        "astId": 561,
        "contract": "contracts/HafizEjaza.sol:HafizEjaza",
        "label": "_symbol",
        "offset": 0,
        "slot": "2",
        "type": "t_string_storage"
      },
      {
        "astId": 565,
        "contract": "contracts/HafizEjaza.sol:HafizEjaza",
        "label": "_owners",
        "offset": 0,
        "slot": "3",
        "type": "t_mapping(t_uint256,t_address)"
      },
      {
        "astId": 569,
        "contract": "contracts/HafizEjaza.sol:HafizEjaza",
        "label": "_balances",
        "offset": 0,
        "slot": "4",
        "type": "t_mapping(t_address,t_uint256)"
      },
      {
        "astId": 573,
        "contract": "contracts/HafizEjaza.sol:HafizEjaza",
        "label": "_tokenApprovals",
        "offset": 0,
        "slot": "5",
        "type": "t_mapping(t_uint256,t_address)"
      },
      {
        "astId": 579,
        "contract": "contracts/HafizEjaza.sol:HafizEjaza",
        "label": "_operatorApprovals",
        "offset": 0,
        "slot": "6",
        "type": "t_mapping(t_address,t_mapping(t_address,t_bool))"
      },
      {
        "astId": 9945,
        "contract": "contracts/HafizEjaza.sol:HafizEjaza",
        "label": "daoContract",
        "offset": 0,
        "slot": "7",
        "type": "t_address"
      },
      {
        "astId": 9947,
        "contract": "contracts/HafizEjaza.sol:HafizEjaza",
        "label": "counter",
        "offset": 0,
        "slot": "8",
        "type": "t_uint256"
      },
      {
        "astId": 9952,
        "contract": "contracts/HafizEjaza.sol:HafizEjaza",
        "label": "isssuedEjaza",
        "offset": 0,
        "slot": "9",
        "type": "t_mapping(t_uint256,t_struct(Ejaza)10629_storage)"
      },
      {
        "astId": 9956,
        "contract": "contracts/HafizEjaza.sol:HafizEjaza",
        "label": "ejazaLink",
        "offset": 0,
        "slot": "10",
        "type": "t_mapping(t_uint256,t_uint256)"
      }
    ],
    "types": {
      "t_address": {
        "encoding": "inplace",
        "label": "address",
        "numberOfBytes": "20"
      },
      "t_bool": {
        "encoding": "inplace",
        "label": "bool",
        "numberOfBytes": "1"
      },
      "t_enum(Recitations)10619": {
        "encoding": "inplace",
        "label": "enum IEjaza.Recitations",
        "numberOfBytes": "1"
      },
      "t_mapping(t_address,t_bool)": {
        "encoding": "mapping",
        "key": "t_address",
        "label": "mapping(address => bool)",
        "numberOfBytes": "32",
        "value": "t_bool"
      },
      "t_mapping(t_address,t_mapping(t_address,t_bool))": {
        "encoding": "mapping",
        "key": "t_address",
        "label": "mapping(address => mapping(address => bool))",
        "numberOfBytes": "32",
        "value": "t_mapping(t_address,t_bool)"
      },
      "t_mapping(t_address,t_uint256)": {
        "encoding": "mapping",
        "key": "t_address",
        "label": "mapping(address => uint256)",
        "numberOfBytes": "32",
        "value": "t_uint256"
      },
      "t_mapping(t_uint256,t_address)": {
        "encoding": "mapping",
        "key": "t_uint256",
        "label": "mapping(uint256 => address)",
        "numberOfBytes": "32",
        "value": "t_address"
      },
      "t_mapping(t_uint256,t_struct(Ejaza)10629_storage)": {
        "encoding": "mapping",
        "key": "t_uint256",
        "label": "mapping(uint256 => struct IEjaza.Ejaza)",
        "numberOfBytes": "32",
        "value": "t_struct(Ejaza)10629_storage"
      },
      "t_mapping(t_uint256,t_uint256)": {
        "encoding": "mapping",
        "key": "t_uint256",
        "label": "mapping(uint256 => uint256)",
        "numberOfBytes": "32",
        "value": "t_uint256"
      },
      "t_string_storage": {
        "encoding": "bytes",
        "label": "string",
        "numberOfBytes": "32"
      },
      "t_struct(Ejaza)10629_storage": {
        "encoding": "inplace",
        "label": "struct IEjaza.Ejaza",
        "members": [
          {
            "astId": 10622,
            "contract": "contracts/HafizEjaza.sol:HafizEjaza",
            "label": "qiraa",
            "offset": 0,
            "slot": "0",
            "type": "t_enum(Recitations)10619"
          },
          {
            "astId": 10624,
            "contract": "contracts/HafizEjaza.sol:HafizEjaza",
            "label": "issueTime",
            "offset": 0,
            "slot": "1",
            "type": "t_uint256"
          },
          {
            "astId": 10626,
            "contract": "contracts/HafizEjaza.sol:HafizEjaza",
            "label": "parentCertId",
            "offset": 0,
            "slot": "2",
            "type": "t_uint256"
          },
          {
            "astId": 10628,
            "contract": "contracts/HafizEjaza.sol:HafizEjaza",
            "label": "recodingURl",
            "offset": 0,
            "slot": "3",
            "type": "t_string_storage"
          }
        ],
        "numberOfBytes": "128"
      },
      "t_uint256": {
        "encoding": "inplace",
        "label": "uint256",
        "numberOfBytes": "32"
      }
    }
  }
}