{
  "address": "0xd9f311186176cF51255E4591fBfA078a6F367C0E",
  "abi": [
    {
      "inputs": [
        {
          "internalType": "address[]",
          "name": "_admins",
          "type": "address[]"
        },
        {
          "internalType": "address",
          "name": "_membershipNFT",
          "type": "address"
        },
        {
          "internalType": "uint256",
          "name": "_gracePeriod",
          "type": "uint256"
        },
        {
          "internalType": "address",
          "name": "_agregator",
          "type": "address"
        }
      ],
      "stateMutability": "nonpayable",
      "type": "constructor"
    },
    {
      "inputs": [
        {
          "internalType": "int256",
          "name": "errorCode",
          "type": "int256"
        }
      ],
      "name": "ActorError",
      "type": "error"
    },
    {
      "inputs": [],
      "name": "ActorNotFound",
      "type": "error"
    },
    {
      "inputs": [],
      "name": "AlreadyRefunded",
      "type": "error"
    },
    {
      "inputs": [],
      "name": "CidAlreadyUsed",
      "type": "error"
    },
    {
      "inputs": [],
      "name": "EmptyDealIds",
      "type": "error"
    },
    {
      "inputs": [],
      "name": "ExpiredProposal",
      "type": "error"
    },
    {
      "inputs": [],
      "name": "FailToCallActor",
      "type": "error"
    },
    {
      "inputs": [
        {
          "internalType": "bytes",
          "name": "addr",
          "type": "bytes"
        }
      ],
      "name": "InvalidAddress",
      "type": "error"
    },
    {
      "inputs": [
        {
          "internalType": "uint64",
          "name": "",
          "type": "uint64"
        }
      ],
      "name": "InvalidCodec",
      "type": "error"
    },
    {
      "inputs": [],
      "name": "InvalidResponseLength",
      "type": "error"
    },
    {
      "inputs": [],
      "name": "NegativeValueNotAllowed",
      "type": "error"
    },
    {
      "inputs": [],
      "name": "NotAuthorized",
      "type": "error"
    },
    {
      "inputs": [
        {
          "internalType": "uint256",
          "name": "balance",
          "type": "uint256"
        },
        {
          "internalType": "uint256",
          "name": "value",
          "type": "uint256"
        }
      ],
      "name": "NotEnoughBalance",
      "type": "error"
    },
    {
      "inputs": [],
      "name": "NotMember",
      "type": "error"
    },
    {
      "inputs": [],
      "name": "NotParentCertOwner",
      "type": "error"
    },
    {
      "inputs": [],
      "name": "NotReadyForExecution",
      "type": "error"
    },
    {
      "inputs": [],
      "name": "NotSameLength",
      "type": "error"
    },
    {
      "inputs": [],
      "name": "NotSameRecitation",
      "type": "error"
    },
    {
      "inputs": [],
      "name": "NotValidCID",
      "type": "error"
    },
    {
      "inputs": [],
      "name": "NotValidDeal",
      "type": "error"
    },
    {
      "inputs": [],
      "name": "NotValidDealData",
      "type": "error"
    },
    {
      "inputs": [],
      "name": "NotValidDealIds",
      "type": "error"
    },
    {
      "inputs": [],
      "name": "NotValidIssueTime",
      "type": "error"
    },
    {
      "inputs": [],
      "name": "NotValidPeiceSize",
      "type": "error"
    },
    {
      "inputs": [],
      "name": "NotValidProposal",
      "type": "error"
    },
    {
      "inputs": [],
      "name": "NotValidProposalState",
      "type": "error"
    },
    {
      "inputs": [],
      "name": "ZeroAddress",
      "type": "error"
    },
    {
      "inputs": [],
      "name": "ZeroDealId",
      "type": "error"
    },
    {
      "anonymous": false,
      "inputs": [
        {
          "indexed": false,
          "internalType": "address",
          "name": "adminAddress",
          "type": "address"
        }
      ],
      "name": "AdminAdded",
      "type": "event"
    },
    {
      "anonymous": false,
      "inputs": [
        {
          "indexed": false,
          "internalType": "uint64",
          "name": "dealId",
          "type": "uint64"
        },
        {
          "indexed": false,
          "internalType": "address",
          "name": "provider",
          "type": "address"
        },
        {
          "indexed": false,
          "internalType": "address",
          "name": "client",
          "type": "address"
        },
        {
          "indexed": false,
          "internalType": "uint256",
          "name": "amount",
          "type": "uint256"
        },
        {
          "indexed": false,
          "internalType": "address",
          "name": "executedBy",
          "type": "address"
        }
      ],
      "name": "DealRefunded",
      "type": "event"
    },
    {
      "anonymous": false,
      "inputs": [
        {
          "indexed": false,
          "internalType": "bytes32",
          "name": "proposalId",
          "type": "bytes32"
        },
        {
          "indexed": false,
          "internalType": "address",
          "name": "proposedBy",
          "type": "address"
        },
        {
          "indexed": false,
          "internalType": "enum IEjaza.Recitations",
          "name": "recitation",
          "type": "uint8"
        }
      ],
      "name": "EjazaProposed",
      "type": "event"
    },
    {
      "anonymous": false,
      "inputs": [
        {
          "indexed": false,
          "internalType": "address",
          "name": "memberAddress",
          "type": "address"
        }
      ],
      "name": "MemberAdded",
      "type": "event"
    },
    {
      "anonymous": false,
      "inputs": [
        {
          "indexed": false,
          "internalType": "bytes32",
          "name": "proposalId",
          "type": "bytes32"
        },
        {
          "indexed": false,
          "internalType": "bytes",
          "name": "cid",
          "type": "bytes"
        },
        {
          "indexed": false,
          "internalType": "address",
          "name": "executedBy",
          "type": "address"
        },
        {
          "indexed": false,
          "internalType": "uint256",
          "name": "ejazaId",
          "type": "uint256"
        },
        {
          "indexed": false,
          "internalType": "enum IEjaza.Recitations",
          "name": "recitation",
          "type": "uint8"
        },
        {
          "indexed": false,
          "internalType": "uint64[]",
          "name": "dealIds",
          "type": "uint64[]"
        }
      ],
      "name": "ProposalExecuted",
      "type": "event"
    },
    {
      "anonymous": false,
      "inputs": [
        {
          "indexed": false,
          "internalType": "bytes32",
          "name": "proposalId",
          "type": "bytes32"
        },
        {
          "indexed": false,
          "internalType": "address",
          "name": "flaggedBy",
          "type": "address"
        }
      ],
      "name": "ProposalFlagged",
      "type": "event"
    },
    {
      "inputs": [
        {
          "internalType": "address",
          "name": "",
          "type": "address"
        }
      ],
      "name": "admins",
      "outputs": [
        {
          "internalType": "bool",
          "name": "",
          "type": "bool"
        }
      ],
      "stateMutability": "view",
      "type": "function"
    },
    {
      "inputs": [
        {
          "internalType": "bytes",
          "name": "",
          "type": "bytes"
        }
      ],
      "name": "cidToProposalId",
      "outputs": [
        {
          "internalType": "bytes32",
          "name": "",
          "type": "bytes32"
        }
      ],
      "stateMutability": "view",
      "type": "function"
    },
    {
      "inputs": [
        {
          "internalType": "uint64",
          "name": "",
          "type": "uint64"
        }
      ],
      "name": "dealIdToProposalId",
      "outputs": [
        {
          "internalType": "bytes32",
          "name": "",
          "type": "bytes32"
        }
      ],
      "stateMutability": "view",
      "type": "function"
    },
    {
      "inputs": [
        {
          "internalType": "uint64",
          "name": "",
          "type": "uint64"
        }
      ],
      "name": "dealIdToProvider",
      "outputs": [
        {
          "internalType": "uint64",
          "name": "",
          "type": "uint64"
        }
      ],
      "stateMutability": "view",
      "type": "function"
    },
    {
      "inputs": [
        {
          "internalType": "bytes32",
          "name": "proposalId",
          "type": "bytes32"
        }
      ],
      "name": "executeProposal",
      "outputs": [],
      "stateMutability": "nonpayable",
      "type": "function"
    },
    {
      "inputs": [
        {
          "internalType": "bytes32",
          "name": "proposalId",
          "type": "bytes32"
        }
      ],
      "name": "flagProposal",
      "outputs": [],
      "stateMutability": "nonpayable",
      "type": "function"
    },
    {
      "inputs": [
        {
          "internalType": "bytes32",
          "name": "proposalId",
          "type": "bytes32"
        }
      ],
      "name": "getDealIds",
      "outputs": [
        {
          "internalType": "uint64[]",
          "name": "",
          "type": "uint64[]"
        }
      ],
      "stateMutability": "view",
      "type": "function"
    },
    {
      "inputs": [],
      "name": "gracePeriod",
      "outputs": [
        {
          "internalType": "uint256",
          "name": "",
          "type": "uint256"
        }
      ],
      "stateMutability": "view",
      "type": "function"
    },
    {
      "inputs": [],
      "name": "joinDAO",
      "outputs": [],
      "stateMutability": "nonpayable",
      "type": "function"
    },
    {
      "inputs": [
        {
          "internalType": "address",
          "name": "",
          "type": "address"
        }
      ],
      "name": "members",
      "outputs": [
        {
          "internalType": "bool",
          "name": "",
          "type": "bool"
        }
      ],
      "stateMutability": "view",
      "type": "function"
    },
    {
      "inputs": [],
      "name": "membershipNFT",
      "outputs": [
        {
          "internalType": "contract HafizEjaza",
          "name": "",
          "type": "address"
        }
      ],
      "stateMutability": "view",
      "type": "function"
    },
    {
      "inputs": [
        {
          "internalType": "bytes32",
          "name": "",
          "type": "bytes32"
        }
      ],
      "name": "proposals",
      "outputs": [
        {
          "internalType": "address",
          "name": "proposedBy",
          "type": "address"
        },
        {
          "internalType": "address",
          "name": "to",
          "type": "address"
        },
        {
          "internalType": "bytes",
          "name": "cid",
          "type": "bytes"
        },
        {
          "internalType": "enum IEjaza.Recitations",
          "name": "recitation",
          "type": "uint8"
        },
        {
          "internalType": "uint256",
          "name": "parentCertId",
          "type": "uint256"
        },
        {
          "internalType": "uint256",
          "name": "proposedAt",
          "type": "uint256"
        },
        {
          "internalType": "enum IHafizDAO.ProposalState",
          "name": "status",
          "type": "uint8"
        }
      ],
      "stateMutability": "view",
      "type": "function"
    },
    {
      "inputs": [
        {
          "internalType": "bytes",
          "name": "cid",
          "type": "bytes"
        },
        {
          "internalType": "address",
          "name": "to",
          "type": "address"
        },
        {
          "internalType": "uint256",
          "name": "parentCertId",
          "type": "uint256"
        },
        {
          "internalType": "enum IEjaza.Recitations",
          "name": "rewaya",
          "type": "uint8"
        }
      ],
      "name": "propose",
      "outputs": [
        {
          "internalType": "bytes32",
          "name": "proposalId",
          "type": "bytes32"
        }
      ],
      "stateMutability": "nonpayable",
      "type": "function"
    }
  ],
  "transactionHash": "0x55f96f940ca47388c65ca63bde2c837a3506da57d29cba99bb226c687d713721",
  "args": [
    [
      "0x8906EA0bc4b4e62314417eCdcbe45757112720E8"
    ],
    "0x9aaD4719E6466835cb5B6c474450B20482DA672e",
    0,
    "0x3FDb159157C6CB8a8955CDcC2CeADFF157BA6F56"
  ],
  "numDeployments": 1,
  "solcInputHash": "807f8a2f8d3b495fedb9f73c6fe0f2e2",
  "bytecode": "0x60806040523480156200001157600080fd5b5060405162003d9f38038062003d9f8339810160408190526200003491620002b6565b600880546001600160a01b038086166001600160a01b031992831617909255600084815560018054938516939092169290921790558451905b8181101562000138576001600260008884815181106200009157620000916200033f565b60200260200101516001600160a01b03166001600160a01b0316815260200190815260200160002060006101000a81548160ff0219169083151502179055507f44d6d25963f097ad14f29f06854a01f575648a1ef82f30e562ccd3889717e3398682815181106200010657620001066200033f565b60200260200101516040516200011d919062000366565b60405180910390a162000130816200038c565b90506200006d565b505050505050620003a9565b634e487b7160e01b600052604160045260246000fd5b601f19601f83011681018181106001600160401b038211171562000182576200018262000144565b6040525050565b60006200019560405190565b9050620001a382826200015a565b919050565b60006001600160401b03821115620001c457620001c462000144565b5060209081020190565b60006001600160a01b0382165b92915050565b620001ec81620001ce565b8114620001f857600080fd5b50565b8051620001db81620001e1565b60006200021f6200021984620001a8565b62000189565b83815290506020808201908402830185811115620002405762000240600080fd5b835b81811015620002685780620002588882620001fb565b8452506020928301920162000242565b5050509392505050565b600082601f830112620002885762000288600080fd5b81516200029a84826020860162000208565b949350505050565b80620001ec565b8051620001db81620002a2565b60008060008060808587031215620002d157620002d1600080fd5b84516001600160401b03811115620002ec57620002ec600080fd5b620002fa8782880162000272565b94505060206200030d87828801620001fb565b93505060406200032087828801620002a9565b92505060606200033387828801620001fb565b91505092959194509250565b634e487b7160e01b600052603260045260246000fd5b6200036081620001ce565b82525050565b60208101620001db828462000355565b634e487b7160e01b600052601160045260246000fd5b60006000198203620003a257620003a262000376565b5060010190565b6139e680620003b96000396000f3fe608060405234801561001057600080fd5b50600436106100df5760003560e01c8063980ff6c61161008c578063a06db7dc11610066578063a06db7dc14610219578063b54af4e214610222578063c30a184b14610259578063f63d13d71461027957600080fd5b8063980ff6c6146101d1578063985d0b1e146101e65780639e256b8f1461020657600080fd5b806332ed5b12116100bd57806332ed5b121461015d578063429b62e5146101835780634ed792ed146101a657600080fd5b806308ae4b0c146100e4578063143664431461011d5780632cd0c1841461013d575b600080fd5b6101076100f236600461275d565b60036020526000908152604090205460ff1681565b6040516101149190612788565b60405180910390f35b61013061012b3660046127a7565b610281565b604051610114919061282a565b61015061014b36600461294e565b61031a565b60405161011491906129d2565b61017061016b3660046127a7565b610771565b6040516101149796959493929190612ab1565b61010761019136600461275d565b60026020526000908152604090205460ff1681565b6101506101b4366004612b20565b805160208183018101805160078252928201919093012091525481565b6101e46101df3660046127a7565b610848565b005b6008546101f9906001600160a01b031681565b6040516101149190612b9d565b6101e46102143660046127a7565b610b84565b61015060005481565b61024c610230366004612bc6565b60056020526000908152604090205467ffffffffffffffff1681565b6040516101149190612be7565b610150610267366004612bc6565b60066020526000908152604090205481565b6101e4610ca7565b60008181526004602090815260409182902060020180548351818402810184019094528084526060939283018282801561030e57602002820191906000526020600020906000905b82829054906101000a900467ffffffffffffffff1667ffffffffffffffff16815260200190600801906020826007010492830192600103820291508084116102c95790505b50505050509050919050565b3360009081526003602052604081205460ff1661034a5760405163148fe22160e11b815260040160405180910390fd5b6001600160a01b03841661038a576040517fd92e233d00000000000000000000000000000000000000000000000000000000815260040160405180910390fd5b84516000036103c5576040517f1b135ccf00000000000000000000000000000000000000000000000000000000815260040160405180910390fd5b8160098111156103d7576103d7612a3f565b6008546040517f18ea65fd0000000000000000000000000000000000000000000000000000000081526001600160a01b03909116906318ea65fd906104209087906004016129d2565b602060405180830381865afa15801561043d573d6000803e3d6000fd5b505050506040513d601f19601f820116820180604052508101906104619190612c00565b600981111561047257610472612a3f565b146104a9576040517febc3639d00000000000000000000000000000000000000000000000000000000815260040160405180910390fd5b6000801b6007866040516104bd9190612c43565b90815260200160405180910390205414610503576040517fa5072f2100000000000000000000000000000000000000000000000000000000815260040160405180910390fd5b8484834260405160200161051a9493929190612c94565b604051602081830303815290604052805190602001209050806007866040516105439190612c43565b908152604080516020928190038301812093909355610100830181523383526001600160a01b038716828401528051600080825292810182529083019150815260200186815260200183600981111561059e5761059e612a3f565b81526020810185905242604082015260600160009052600082815260046020908152604091829020835181546001600160a01b039182167fffffffffffffffffffffffff0000000000000000000000000000000000000000918216178355858401516001840180549190931691161790559183015180516106259260028501920190612625565b506060820151600382019061063a9082612db1565b50608082015160048201805460ff1916600183600981111561065e5761065e612a3f565b021790555060a0820151600582015560c0820151600682015560e082015160078201805460ff1916600183600381111561069a5761069a612a3f565b0217905550506001546040517fef7fa71b0000000000000000000000000000000000000000000000000000000081526001600160a01b03909116915063ef7fa71b906106ea908890600401612e75565b6020604051808303816000875af1158015610709573d6000803e3d6000fd5b505050506040513d601f19601f8201168201806040525081019061072d9190612e91565b507f36b331603352bbe2629281787a971c9497cec0767cd4514d8fb414eb4e25c45a81338460405161076193929190612eb2565b60405180910390a1949350505050565b6004602052600090815260409020805460018201546003830180546001600160a01b039384169492909316926107a690612cee565b80601f01602080910402602001604051908101604052809291908181526020018280546107d290612cee565b801561081f5780601f106107f45761010080835404028352916020019161081f565b820191906000526020600020905b81548152906001019060200180831161080257829003601f168201915b505050600484015460058501546006860154600790960154949560ff9283169591945092501687565b600081815260046020819052604080832060015491517ff50343010000000000000000000000000000000000000000000000000000000081529093926001600160a01b039092169163f5034301916108a591600387019101612f54565b6000604051808303816000875af11580156108c4573d6000803e3d6000fd5b505050506040513d6000823e601f3d908101601f191682016040526108ec919081019061305f565b90506000600783015460ff16600381111561090957610909612a3f565b146109275760405163f355f3b960e01b815260040160405180910390fd5b42600054836006015461093a91906130b0565b1115610972576040517f7b981d6500000000000000000000000000000000000000000000000000000000815260040160405180910390fd5b80516000036109ad576040517f3b8eaecc00000000000000000000000000000000000000000000000000000000815260040160405180910390fd5b60078201805460ff191660039081179091556008546005840154600480860154865460018801546040517f59a1c6880000000000000000000000000000000000000000000000000000000081526000976001600160a01b03978816976359a1c68897610a2e979096928d019560ff90931694928216939190921691016130c3565b6020604051808303816000875af1158015610a4d573d6000803e3d6000fd5b505050506040513d601f19601f82011682018060405250810190610a719190612e91565b905060005b8251811015610b2c5783600201838281518110610a9557610a9561310c565b60200260200101516000015190806001815401808255809150506001900390600052602060002090600491828204019190066008029091909190916101000a81548167ffffffffffffffff021916908367ffffffffffffffff160217905550610b1a838281518110610b0957610b0961310c565b602002602001015160000151610d86565b80610b2481613122565b915050610a76565b5060048301546040517fe2a7caf43e8031b1f0747a59bce1ef9352587d75f42677af884b7ea1cc34302291610b7691879160038801913391879160ff9091169060028b019061329f565b60405180910390a150505050565b3360009081526003602052604090205460ff16610bb45760405163148fe22160e11b815260040160405180910390fd5b60008181526004602052604081206007015460ff166003811115610bda57610bda612a3f565b14610bf85760405163f355f3b960e01b815260040160405180910390fd5b6000805482825260046020526040909120600601544291610c18916130b0565b1015610c50576040517f6496c42000000000000000000000000000000000000000000000000000000000815260040160405180910390fd5b7f2e2d59cb73343b6216c55d9de9060dce46ce1595a4c3d5481fbd9d97a23365cb8133604051610c819291906132fa565b60405180910390a16000908152600460205260409020600701805460ff19166002179055565b6008546040517f70a082310000000000000000000000000000000000000000000000000000000081526001600160a01b03909116906370a0823190610cf0903390600401613315565b602060405180830381865afa158015610d0d573d6000803e3d6000fd5b505050506040513d601f19601f82011682018060405250810190610d319190612e91565b600003610d6a576040517fea8e4eb500000000000000000000000000000000000000000000000000000000815260040160405180910390fd5b336000908152600360205260409020805460ff19166001179055565b3360009081526003602052604090205460ff16610db65760405163148fe22160e11b815260040160405180910390fd5b8067ffffffffffffffff16600003610dfa576040517fea7eb2c900000000000000000000000000000000000000000000000000000000815260040160405180910390fd5b6000610e0582610f7e565b67ffffffffffffffff8084166000908152600560205260409020549192501615610e5b576040517fa85e6f1a00000000000000000000000000000000000000000000000000000000815260040160405180910390fd5b6000610e6683610fd1565b90506000610e7384611008565b90506000610e8082611053565b5090506000610e8e866110ed565b67ffffffffffffffff87811660009081526005602052604090819020805467ffffffffffffffff19169284169290921790915586519051919250600791610ed59190612c43565b908152602001604051809103902054600660008867ffffffffffffffff1667ffffffffffffffff16815260200190815260200160002081905550610f238467ffffffffffffffff1683611119565b7f0e4f00271104d8aa7d481ed2af21eeb667a9f4d95771077819703f2e270bd0bb868267ffffffffffffffff168667ffffffffffffffff168533604051610f6e959493929190613323565b60405180910390a1505050505050565b6040805180820190915260608152600060208201526000610fa88367ffffffffffffffff16611135565b90506000610fbe6005634505760a60518561116e565b9050610fc981611193565b949350505050565b600080610fe78367ffffffffffffffff16611135565b90506000610ffd60056307a1f05160518561116e565b9050610fc981611210565b60408051808201909152606081526000602082015260006110328367ffffffffffffffff16611135565b90506000611048600563ff88e83c60518561116e565b9050610fc981611227565b600080826020015115611092576040517f83041cea00000000000000000000000000000000000000000000000000000000815260040160405180910390fd5b60006110a1600019600061128b565b905060006110b7856000015186602001516112e5565b90506110c38183611317565b156110d657506000946001945092505050565b80516110e190613362565b95600095509350505050565b6000806111038367ffffffffffffffff16611135565b90506000610ffd60056337bc36da60518561116e565b600061112483611341565b90506111308183611384565b505050565b6060600061114c8367ffffffffffffffff166113cc565b905060006111598261141a565b9050611165818561143b565b610fc98161144b565b606061148080611188878787876000600163ffffffff8816565b979650505050505050565b6040805180820190915260608152600060208201526000806111b5848261158f565b9250905080156111f0576111c984836115dc565b90845291506111d88483611765565b67ffffffffffffffff90911660208501529150611209565b6040805160008082526020808301909352908552908401525b5050919050565b6000808061121e8482611765565b50949350505050565b6040805180820190915260608082526000602083018190528351156112655761125084826115dc565b815191935091501561126557610fc9826117a7565b505060408051600081830181815260608301909352918152602081019190915292915050565b6112b1604051806060016040528060608152602001600015158152602001600081525090565b6112dc836040516020016112c5919061339f565b60405160208183030381529060405283600061194c565b90505b92915050565b61130b604051806060016040528060608152602001600015158152602001600081525090565b6112dc8383600061194c565b60008061132684846001611a2b565b905080600114611337576000610fc9565b6001949350505050565b60408051602081019091526060815260405180602001604052808360405160200161136c91906133b4565b60408051601f19818403018152919052905292915050565b81516040805160008082526020820190925290916113a89183908190866000611b66565b9050805160001461113057604051630e74990760e01b815260040160405180910390fd5b6000601782116113de57506001919050565b60ff82116113ee57506002919050565b61ffff82116113ff57506003919050565b63ffffffff821161141257506005919050565b506009919050565b6114226126e0565b805161142e9083611c05565b5060006020820152919050565b61144782600083611c7c565b5050565b6060816020015160001461147a5760405162461bcd60e51b815260040161147190613426565b60405180910390fd5b50515190565b60606114a073fe0000000000000000000000000000000000000584611da3565b60008073fe000000000000000000000000000000000000058886866114c65760006114c9565b60015b8a8a8e6040516020016114e196959493929190613454565b60408051601f19818403018152908290526114fb91612c43565b600060405180830381855af49150503d8060008114611536576040519150601f19603f3d011682016040523d82523d6000602084013e61153b565b606091505b509150915081611577576040517f8a7db5bf00000000000000000000000000000000000000000000000000000000815260040160405180910390fd5b61158081611e1d565b925050505b9695505050505050565b60008060008061159f8686611f2b565b965090925067ffffffffffffffff16905060ff82166004146115d35760405162461bcd60e51b8152600401611471906134de565b95939450505050565b606060008060006115ed8686611f2b565b965090925067ffffffffffffffff16905060ff821660061480611613575060ff82166002145b61162f5760405162461bcd60e51b81526004016114719061354b565b60051960ff831601611669576116458686611f2b565b965090925067ffffffffffffffff16905060ff82166002146116695761166961355b565b600061167582876130b0565b905060008267ffffffffffffffff8111156116925761169261283b565b6040519080825280601f01601f1916602001820160405280156116bc576020820181803683370190505b5090506000875b83811015611749578981815181106116dd576116dd61310c565b602001015160f81c60f81b8383815181106116fa576116fa61310c565b60200101907effffffffffffffffffffffffffffffffffffffffffffffffffffffffffffff1916908160001a9053508161173381613122565b925050808061174190613122565b9150506116c3565b5081611755858a6130b0565b9650965050505050509250929050565b6000806000806117758686611f2b565b965090925067ffffffffffffffff16905060ff8216156115d35760405162461bcd60e51b8152600401611471906135cb565b60408051808201909152606081526000602082015281516000036117f0575050604080516080810182526001918101918252600060608201819052918152602081019190915290565b60006001835161180091906135db565b67ffffffffffffffff8111156118185761181861283b565b6040519080825280601f01601f191660200182016040528015611842576020820181803683370190505b50905060008360008151811061185a5761185a61310c565b01602001517fff0000000000000000000000000000000000000000000000000000000000000016600160f81b0361188f575060015b60015b8451811015611931578481815181106118ad576118ad61310c565b01602001517fff0000000000000000000000000000000000000000000000000000000000000016836118e06001846135db565b815181106118f0576118f061310c565b60200101907effffffffffffffffffffffffffffffffffffffffffffffffffffffffffffff1916908160001a9053508061192981613122565b915050611892565b50604080518082019091529182521515602082015292915050565b611972604051806060016040528060608152602001600015158152602001600081525090565b602084018451600060405160006020840614600181146119a457601f84166020908103808601845283010192506119ae565b6020820192508382525b50600060208201528282848660046101c2fa506020815101810160405280515b602081146119fa57602082015115600181146119ea57506119fa565b60208301925050601f19016119ce565b81528452505050602081018390528115611a145781611a1f565b8051611a1f906120a8565b60408201529392505050565b600060018215611aa45784602001518015611a47575083602001515b15611a555750600019611aa4565b6020850151158015611a6d5750602084015115156001145b15611a7c576001915050611b5f565b602085015115156001148015611a9457506020840151155b15611aa457600019915050611b5f565b836040015185604001511115611abb579050611b5f565b846040015184604001511115611adf57611ad7816000196135ee565b915050611b5f565b84518051855160209283019201906000908190815b81811015611b535780860151935080850151925082841115611b1f5786975050505050505050611b5f565b83831115611b4157611b33876000196135ee565b975050505050505050611b5f565b611b4c6020826130b0565b9050611af4565b50600096505050505050505b9392505050565b6060600287511015611ba657866040517f370d875f0000000000000000000000000000000000000000000000000000000081526004016114719190612e75565b611bc473fe0000000000000000000000000000000000000384611da3565b60008073fe00000000000000000000000000000000000003888686611bea576000611bed565b60015b8a8a8e6040516020016114e196959493929190613626565b604080518082019091526060815260006020820152611c25602083613697565b15611c4d57611c35602083613697565b611c409060206135db565b611c4a90836130b0565b91505b602080840183905260405180855260008152908184010181811015611c7157600080fd5b604052509192915050565b60178167ffffffffffffffff1611611ca9578251611ca39060e0600585901b1683176120e0565b50505050565b60ff8167ffffffffffffffff1611611ceb578251611cd2906018611fe0600586901b16176120e0565b508251611ca39067ffffffffffffffff83166001612149565b61ffff8167ffffffffffffffff1611611d2e578251611d15906019611fe0600586901b16176120e0565b508251611ca39067ffffffffffffffff83166002612149565b63ffffffff8167ffffffffffffffff1611611d73578251611d5a90601a611fe0600586901b16176120e0565b508251611ca39067ffffffffffffffff83166004612149565b8251611d8a90601b611fe0600586901b16176120e0565b508251611ca39067ffffffffffffffff83166008612149565b4781811015611de25780826040517f8f0f42060000000000000000000000000000000000000000000000000000000081526004016114719291906136ab565b823f151580611ca3576040517f64d954b000000000000000000000000000000000000000000000000000000000815260040160405180910390fd5b6060600080600084806020019051810190611e38919061371e565b9194509250905067ffffffffffffffff8216611e7357805115611e6e57604051630e74990760e01b815260040160405180910390fd5b611ef1565b67ffffffffffffffff821660511480611e96575067ffffffffffffffff82166071145b15611ebd578051600003611e6e57604051630e74990760e01b815260040160405180910390fd5b816040517ff1f6bced0000000000000000000000000000000000000000000000000000000081526004016114719190612be7565b8215610fc957826040517fd4bb667100000000000000000000000000000000000000000000000000000000815260040161147191906129d2565b600080600080611f3b86866121ce565b9050611f486001866130b0565b94506007600582901c16601f8216601c8110611f765760405162461bcd60e51b8152600401611471906137e3565b60188160ff161015611f945790945060ff1692508491506120a19050565b8060ff16601803611ff1576000611fab89896121ce565b9050611fb86001896130b0565b975060188160ff161015611fde5760405162461bcd60e51b815260040161147190613827565b9195505060ff1692508491506120a19050565b8060ff1660190361202b576000612008898961221d565b90506120156002896130b0565b97509195505061ffff1692508491506120a19050565b8060ff16601a036120675760006120428989612256565b905061204f6004896130b0565b97509195505063ffffffff1692508491506120a19050565b8060ff16601b1461207a5761207a61355b565b6000612086898961228f565b90506120936008896130b0565b975091955090935085925050505b9250925092565b60006120b3826122c8565b156120c057506000919050565b60208201516120ce81612311565b9251601f190160080290920192915050565b60408051808201909152606081526000602082015282515160006121058260016130b0565b9050846020015182106121265761212685612121836002613837565b612526565b8451602083820101858153815183111561213e578282525b509495945050505050565b604080518082019091526060815260006020820152835151600061216d82856130b0565b9050856020015181111561218a5761218a86612121836002613837565b6000600161219a8661010061395d565b6121a491906135db565b9050865182810187831982511617815281518411156121c1578382525b5096979650505050505050565b60006121db8260016130b0565b835110156121fb5760405162461bcd60e51b8152600401611471906139a0565b82828151811061220d5761220d61310c565b016020015160f81c905092915050565b600061222a8260026130b0565b8351101561224a5760405162461bcd60e51b8152600401611471906139a0565b50016020015160f01c90565b60006122638260046130b0565b835110156122835760405162461bcd60e51b8152600401611471906139a0565b50016020015160e01c90565b600061229c8260086130b0565b835110156122bc5760405162461bcd60e51b8152600401611471906139a0565b50016020015160c01c90565b60008060208301815b8451811015612306578151925082156122ef57506000949350505050565b6020918201916122ff90826130b0565b90506122d1565b506001949350505050565b600081156001811461251b57604080517ff8f9cbfae6cc78fbefe7cdc3a1793dfcf4f0e8bbd8cec470b6a28a7a5a3e1efd81527ff5ecf1b3e9debc68e1d9cfabc5997135bfb7a7a3938b7b606b5b4b3f2f1f0ffe60208201527ff6e4ed9ff2d6b458eadcdf97bd91692de2d4da8fd2d0ac50c6ae9a8272523616818301527fc8c0b887b0a8a4489c948c7f847c6125746c645c544c444038302820181008ff60608201527ff7cae577eec2a03cf3bad76fb589591debb2dd67e0aa9834bea6925f6a4a2e0e60808201527fe39ed557db96902cd38ed14fad815115c786af479b7e8324736353433727170760a08201527fc976c13bb96e881cb166a933a55e490d9d56952b8d4e801485467d236242260660c08201527f753a6d1b65325d0c552a4d1345224105391a310b29122104190a11030902010060e0820152610100818101909252600160f81b7e818283848586878898a8b8c8d8e8f929395969799a9b9d9e9faaeb6bedeeff70010000000000000000000000000000000068010000000000000000640100000000620100006010600460026000198e0190810481179182049091179182049091178981041791820490911791820490911791820490911791820490911760010182810284900460ff8190038601519199600160ff1b811190970291859004919091019750919291908516612511576001870196505b5050505050612520565b600091505b50919050565b81516125328383611c05565b50611ca383826040805180820190915260608152600060208201526112dc83838451604080518082019091526060815260006020820152825182111561257757600080fd5b835151600061258684836130b0565b905085602001518111156125a3576125a386612121836002613837565b8551805183820160200191600091808511156125bd578482525b505050602086015b602086106125fd57805182526125dc6020836130b0565b91506125e96020826130b0565b90506125f66020876135db565b95506125c5565b51815160001960208890036101000a0190811690199190911617905250849150509392505050565b828054828255906000526020600020906003016004900481019282156126d05791602002820160005b8382111561269a57835183826101000a81548167ffffffffffffffff021916908367ffffffffffffffff160217905550926020019260080160208160070104928301926001030261264e565b80156126ce5782816101000a81549067ffffffffffffffff021916905560080160208160070104928301926001030261269a565b505b506126dc929150612715565b5090565b6040518060400160405280612708604051806040016040528060608152602001600081525090565b8152602001600081525090565b5b808211156126dc5760008155600101612716565b60006001600160a01b0382166112df565b6127448161272a565b811461274f57600080fd5b50565b80356112df8161273b565b60006020828403121561277257612772600080fd5b6000610fc98484612752565b8015155b82525050565b602081016112df828461277e565b80612744565b80356112df81612796565b6000602082840312156127bc576127bc600080fd5b6000610fc9848461279c565b67ffffffffffffffff8116612782565b60006127e483836127c8565b505060200190565b60006127f6825190565b80845260209384019383018060005b8381101561213e57815161281988826127d8565b975060208301925050600101612805565b602080825281016112dc81846127ec565b634e487b7160e01b600052604160045260246000fd5b601f19601f830116810181811067ffffffffffffffff821117156128775761287761283b565b6040525050565b600061288960405190565b90506128958282612851565b919050565b600067ffffffffffffffff8211156128b4576128b461283b565b601f19601f83011660200192915050565b82818337506000910152565b60006128e46128df8461289a565b61287e565b9050828152602081018484840111156128ff576128ff600080fd5b61290a8482856128c5565b509392505050565b600082601f83011261292657612926600080fd5b8135610fc98482602086016128d1565b600a811061274f57600080fd5b80356112df81612936565b6000806000806080858703121561296757612967600080fd5b843567ffffffffffffffff81111561298157612981600080fd5b61298d87828801612912565b945050602061299e87828801612752565b93505060406129af8782880161279c565b92505060606129c087828801612943565b91505092959194509250565b80612782565b602081016112df82846129cc565b6127828161272a565b60005b83811015612a045781810151838201526020016129ec565b50506000910152565b6000612a17825190565b808452602084019350612a2e8185602086016129e9565b601f01601f19169290920192915050565b634e487b7160e01b600052602160045260246000fd5b600a811061274f5761274f612a3f565b8061289581612a55565b60006112df82612a65565b61278281612a6f565b6004811061274f5761274f612a3f565b8061289581612a83565b60006112df82612a93565b61278281612a9d565b60e08101612abf828a6129e0565b612acc60208301896129e0565b8181036040830152612ade8188612a0d565b9050612aed6060830187612a7a565b612afa60808301866129cc565b612b0760a08301856129cc565b612b1460c0830184612aa8565b98975050505050505050565b600060208284031215612b3557612b35600080fd5b813567ffffffffffffffff811115612b4f57612b4f600080fd5b610fc984828501612912565b60006112df6001600160a01b038316612b72565b90565b6001600160a01b031690565b60006112df82612b5b565b60006112df82612b7e565b61278281612b89565b602081016112df8284612b94565b67ffffffffffffffff8116612744565b80356112df81612bab565b600060208284031215612bdb57612bdb600080fd5b6000610fc98484612bbb565b602081016112df82846127c8565b80516112df81612936565b600060208284031215612c1557612c15600080fd5b6000610fc98484612bf5565b6000612c2b825190565b612c398185602086016129e9565b9290920192915050565b6000611b5f8284612c21565b60006112df8260601b90565b60006112df82612c4f565b612782612c728261272a565b612c5b565b60006112df8260f81b90565b612782612c8f82612a6f565b612c77565b6000612ca08287612c21565b9150612cac8286612c66565b601482019150612cbc8285612c83565b600182019150612ccc82846129cc565b50602001949350505050565b634e487b7160e01b600052602260045260246000fd5b600281046001821680612d0257607f821691505b60208210810361252057612520612cd8565b60006112df612b6f8381565b612d2983612d14565b81546008840282811b60001990911b908116901990911617825550505050565b6000611130818484612d20565b8181101561144757612d69600082612d49565b600101612d56565b601f821115611130576000818152602090206020601f85010481016020851015612d985750805b612daa6020601f860104830182612d56565b5050505050565b815167ffffffffffffffff811115612dcb57612dcb61283b565b612dd58254612cee565b612de0828285612d71565b6020601f831160018114612e145760008415612dfc5750858201515b600019600886021c1981166002860217865550612e6d565b600085815260208120601f198616915b82811015612e445788850151825560209485019460019092019101612e24565b86831015612e605784890151600019601f89166008021c191682555b6001600288020188555050505b505050505050565b602080825281016112dc8184612a0d565b80516112df81612796565b600060208284031215612ea657612ea6600080fd5b6000610fc98484612e86565b60608101612ec082866129cc565b612ecd60208301856129e0565b610fc96040830184612a7a565b60008154612ee781612cee565b808552602085019450600182168015612f075760018114612f1d57612f4b565b60ff198316865260208215150286019350612f4b565b60008581526020902060005b83811015612f4557815488820152600190910190602001612f29565b87019450505b50505092915050565b602080825281016112dc8184612eda565b600067ffffffffffffffff821115612f7f57612f7f61283b565b5060209081020190565b80516112df81612bab565b600060408284031215612fa957612fa9600080fd5b612fb3604061287e565b90506000612fc18484612f89565b8252506020612fd284848301612f89565b60208301525092915050565b6000612fec6128df84612f65565b8381529050602081016040840283018581111561300b5761300b600080fd5b835b8181101561303157806130208882612f94565b84525060209092019160400161300d565b5050509392505050565b600082601f83011261304f5761304f600080fd5b8151610fc9848260208601612fde565b60006020828403121561307457613074600080fd5b815167ffffffffffffffff81111561308e5761308e600080fd5b610fc98482850161303b565b634e487b7160e01b600052601160045260246000fd5b808201808211156112df576112df61309a565b60a081016130d182886129cc565b81810360208301526130e38187612eda565b90506130f26040830186612a7a565b6130ff60608301856129e0565b61158560808301846129e0565b634e487b7160e01b600052603260045260246000fd5b600060001982036131355761313561309a565b5060010190565b60006112df825b67ffffffffffffffff1690565b60006112df6131438360401c90565b60006112df6131438360801c90565b60006112df6131438360c01c90565b6000613187825490565b8084526000838152602080822095019485915b600381018411156132095781546131b9886131b48361313c565b6127c8565b6020880197506131cc886131b483613150565b6020880197506131df886131b48361315f565b6020880197506131f2886131b48361316e565b50602096909601956001919091019060040161319a565b81548482101561322d57613220886131b48361313c565b6020880197506001820191505b8482101561324f57613242886131b483613150565b6020880197506001820191505b8482101561327157613264886131b48361315f565b6020880197506001820191505b8482101561329357613286886131b48361316e565b6020880197506001820191505b50509495945050505050565b60c081016132ad82896129cc565b81810360208301526132bf8188612eda565b90506132ce60408301876129e0565b6132db60608301866129cc565b6132e86080830185612a7a565b81810360a0830152612b14818461317d565b6040810161330882856129cc565b611b5f60208301846129e0565b602081016112df82846129e0565b60a0810161333182886127c8565b61333e60208301876129e0565b61334b60408301866129e0565b6130ff60608301856129cc565b60006112df825190565b600061336c825190565b6020830161337981613358565b9250602082101561120957613395600019836020036008021b90565b9092169392505050565b60006133ab82846129cc565b50602001919050565b7f040a000000000000000000000000000000000000000000000000000000000000815260020160006133e68284612c66565b50601401919050565b600c81526000602082017f496e76616c69642043424f520000000000000000000000000000000000000000815291505b5060200190565b602080825281016112df816133ef565b60006112df67ffffffffffffffff8316613143565b61278281613436565b60c0810161346282896127c8565b61346f60208301886129cc565b61347c60408301876127c8565b61348960608301866127c8565b818103608083015261349b8185612a0d565b905061118860a083018461344b565b601f81526000602082017f696e76616c6964206d616a20286578706563746564204d616a417272617929008152915061341f565b602080825281016112df816134aa565b602e81526000602082017f696e76616c6964206d616a20286578706563746564204d616a546167206f722081527f4d616a42797465537472696e6729000000000000000000000000000000000000602082015291505b5060400190565b602080825281016112df816134ee565b634e487b7160e01b600052600160045260246000fd5b602581526000602082017f696e76616c6964206d616a20286578706563746564204d616a556e7369676e6581527f64496e742900000000000000000000000000000000000000000000000000000060208201529150613544565b602080825281016112df81613571565b818103818111156112df576112df61309a565b8181028060008312600160ff1b8514161561360b5761360b61309a565b828205841483151761361f5761361f61309a565b5092915050565b60c0810161363482896127c8565b61364160208301886129cc565b61364e60408301876127c8565b61365b60608301866127c8565b818103608083015261366d8185612a0d565b905081810360a0830152612b148184612a0d565b634e487b7160e01b600052601260045260246000fd5b6000826136a6576136a6613681565b500690565b604081016136b982856129cc565b611b5f60208301846129cc565b60006136d46128df8461289a565b9050828152602081018484840111156136ef576136ef600080fd5b61290a8482856129e9565b600082601f83011261370e5761370e600080fd5b8151610fc98482602086016136c6565b60008060006060848603121561373657613736600080fd5b60006137428686612e86565b935050602061375386828701612f89565b925050604084015167ffffffffffffffff81111561377357613773600080fd5b61377f868287016136fa565b9150509250925092565b602581526000602082017f63616e6e6f742068616e646c652068656164657273207769746820657874726181527f203e20323700000000000000000000000000000000000000000000000000000060208201529150613544565b602080825281016112df81613789565b600c81526000602082017f696e76616c69642063626f7200000000000000000000000000000000000000008152915061341f565b602080825281016112df816137f3565b81810280821583820485141761361f5761361f61309a565b80825b600185111561388e5780860481111561386d5761386d61309a565b600185161561387b57908102905b80026138878560011c90565b9450613852565b94509492505050565b6000826138a657506001611b5f565b816138b357506000611b5f565b81600181146138c957600281146138d357613900565b6001915050611b5f565b60ff8411156138e4576138e461309a565b8360020a9150848211156138fa576138fa61309a565b50611b5f565b5060208310610133831016604e8410600b8410161715613933575081810a8381111561392e5761392e61309a565b611b5f565b613940848484600161384f565b925090508184048111156139565761395661309a565b0292915050565b60006112dc6000198484613897565b601481526000602082017f736c6963696e67206f7574206f662072616e67650000000000000000000000008152915061341f565b602080825281016112df8161396c56fea2646970667358221220f53af80a8591dbc0c1353c99536954f0c2b975eac286579c9027c3296898cbb664736f6c63430008110033",
  "devdoc": {
    "kind": "dev",
    "methods": {},
    "version": 1
  },
  "userdoc": {
    "errors": {
      "ActorError(int256)": [
        {
          "notice": "the called actor returned an error as part of its expected behaviour"
        }
      ],
      "ActorNotFound()": [
        {
          "notice": "the actor is not found"
        }
      ],
      "FailToCallActor()": [
        {
          "notice": "an error happened trying to call the actor"
        }
      ],
      "InvalidAddress(bytes)": [
        {
          "notice": "the provided address is not valid"
        }
      ],
      "InvalidCodec(uint64)": [
        {
          "notice": "the codec received is not valid"
        }
      ],
      "InvalidResponseLength()": [
        {
          "notice": "the response received is not correct. In some case no response is expected and we received one, or a response was indeed expected and we received none."
        }
      ],
      "NotEnoughBalance(uint256,uint256)": [
        {
          "notice": "the smart contract has no enough balance to transfer"
        }
      ],
      "NotValidIssueTime()": [
        {
          "notice": "if  _legacyEjaza[index].issueTime == 0 || _legacyEjaza[index].issueTime >= block.timestamp "
        }
      ]
    },
    "kind": "user",
    "methods": {},
    "version": 1
  },
  "storageLayout": {
    "storage": [
      {
        "astId": 8946,
        "contract": "contracts/HafizDAO.sol:HafizDAO",
        "label": "gracePeriod",
        "offset": 0,
        "slot": "0",
        "type": "t_uint256"
      },
      {
        "astId": 8949,
        "contract": "contracts/HafizDAO.sol:HafizDAO",
        "label": "_lighthouse",
        "offset": 0,
        "slot": "1",
        "type": "t_contract(IAggregatorOracle)12282"
      },
      {
        "astId": 8953,
        "contract": "contracts/HafizDAO.sol:HafizDAO",
        "label": "admins",
        "offset": 0,
        "slot": "2",
        "type": "t_mapping(t_address,t_bool)"
      },
      {
        "astId": 8957,
        "contract": "contracts/HafizDAO.sol:HafizDAO",
        "label": "members",
        "offset": 0,
        "slot": "3",
        "type": "t_mapping(t_address,t_bool)"
      },
      {
        "astId": 8962,
        "contract": "contracts/HafizDAO.sol:HafizDAO",
        "label": "proposals",
        "offset": 0,
        "slot": "4",
        "type": "t_mapping(t_bytes32,t_struct(EjazaProposal)9897_storage)"
      },
      {
        "astId": 8966,
        "contract": "contracts/HafizDAO.sol:HafizDAO",
        "label": "dealIdToProvider",
        "offset": 0,
        "slot": "5",
        "type": "t_mapping(t_uint64,t_uint64)"
      },
      {
        "astId": 8970,
        "contract": "contracts/HafizDAO.sol:HafizDAO",
        "label": "dealIdToProposalId",
        "offset": 0,
        "slot": "6",
        "type": "t_mapping(t_uint64,t_bytes32)"
      },
      {
        "astId": 8974,
        "contract": "contracts/HafizDAO.sol:HafizDAO",
        "label": "cidToProposalId",
        "offset": 0,
        "slot": "7",
        "type": "t_mapping(t_bytes_memory_ptr,t_bytes32)"
      },
      {
        "astId": 8980,
        "contract": "contracts/HafizDAO.sol:HafizDAO",
        "label": "membershipNFT",
        "offset": 0,
        "slot": "8",
        "type": "t_contract(HafizEjaza)9830"
      }
    ],
    "types": {
      "t_address": {
        "encoding": "inplace",
        "label": "address",
        "numberOfBytes": "20"
      },
      "t_array(t_uint64)dyn_storage": {
        "base": "t_uint64",
        "encoding": "dynamic_array",
        "label": "uint64[]",
        "numberOfBytes": "32"
      },
      "t_bool": {
        "encoding": "inplace",
        "label": "bool",
        "numberOfBytes": "1"
      },
      "t_bytes32": {
        "encoding": "inplace",
        "label": "bytes32",
        "numberOfBytes": "32"
      },
      "t_bytes_memory_ptr": {
        "encoding": "bytes",
        "label": "bytes",
        "numberOfBytes": "32"
      },
      "t_bytes_storage": {
        "encoding": "bytes",
        "label": "bytes",
        "numberOfBytes": "32"
      },
      "t_contract(HafizEjaza)9830": {
        "encoding": "inplace",
        "label": "contract HafizEjaza",
        "numberOfBytes": "20"
      },
      "t_contract(IAggregatorOracle)12282": {
        "encoding": "inplace",
        "label": "contract IAggregatorOracle",
        "numberOfBytes": "20"
      },
      "t_enum(ProposalState)9877": {
        "encoding": "inplace",
        "label": "enum IHafizDAO.ProposalState",
        "numberOfBytes": "1"
      },
      "t_enum(Recitations)9843": {
        "encoding": "inplace",
        "label": "enum IEjaza.Recitations",
        "numberOfBytes": "1"
      },
      "t_mapping(t_address,t_bool)": {
        "encoding": "mapping",
        "key": "t_address",
        "label": "mapping(address => bool)",
        "numberOfBytes": "32",
        "value": "t_bool"
      },
      "t_mapping(t_bytes32,t_struct(EjazaProposal)9897_storage)": {
        "encoding": "mapping",
        "key": "t_bytes32",
        "label": "mapping(bytes32 => struct IHafizDAO.EjazaProposal)",
        "numberOfBytes": "32",
        "value": "t_struct(EjazaProposal)9897_storage"
      },
      "t_mapping(t_bytes_memory_ptr,t_bytes32)": {
        "encoding": "mapping",
        "key": "t_bytes_memory_ptr",
        "label": "mapping(bytes => bytes32)",
        "numberOfBytes": "32",
        "value": "t_bytes32"
      },
      "t_mapping(t_uint64,t_bytes32)": {
        "encoding": "mapping",
        "key": "t_uint64",
        "label": "mapping(uint64 => bytes32)",
        "numberOfBytes": "32",
        "value": "t_bytes32"
      },
      "t_mapping(t_uint64,t_uint64)": {
        "encoding": "mapping",
        "key": "t_uint64",
        "label": "mapping(uint64 => uint64)",
        "numberOfBytes": "32",
        "value": "t_uint64"
      },
      "t_struct(EjazaProposal)9897_storage": {
        "encoding": "inplace",
        "label": "struct IHafizDAO.EjazaProposal",
        "members": [
          {
            "astId": 9879,
            "contract": "contracts/HafizDAO.sol:HafizDAO",
            "label": "proposedBy",
            "offset": 0,
            "slot": "0",
            "type": "t_address"
          },
          {
            "astId": 9881,
            "contract": "contracts/HafizDAO.sol:HafizDAO",
            "label": "to",
            "offset": 0,
            "slot": "1",
            "type": "t_address"
          },
          {
            "astId": 9884,
            "contract": "contracts/HafizDAO.sol:HafizDAO",
            "label": "dealIds",
            "offset": 0,
            "slot": "2",
            "type": "t_array(t_uint64)dyn_storage"
          },
          {
            "astId": 9886,
            "contract": "contracts/HafizDAO.sol:HafizDAO",
            "label": "cid",
            "offset": 0,
            "slot": "3",
            "type": "t_bytes_storage"
          },
          {
            "astId": 9889,
            "contract": "contracts/HafizDAO.sol:HafizDAO",
            "label": "recitation",
            "offset": 0,
            "slot": "4",
            "type": "t_enum(Recitations)9843"
          },
          {
            "astId": 9891,
            "contract": "contracts/HafizDAO.sol:HafizDAO",
            "label": "parentCertId",
            "offset": 0,
            "slot": "5",
            "type": "t_uint256"
          },
          {
            "astId": 9893,
            "contract": "contracts/HafizDAO.sol:HafizDAO",
            "label": "proposedAt",
            "offset": 0,
            "slot": "6",
            "type": "t_uint256"
          },
          {
            "astId": 9896,
            "contract": "contracts/HafizDAO.sol:HafizDAO",
            "label": "status",
            "offset": 0,
            "slot": "7",
            "type": "t_enum(ProposalState)9877"
          }
        ],
        "numberOfBytes": "256"
      },
      "t_uint256": {
        "encoding": "inplace",
        "label": "uint256",
        "numberOfBytes": "32"
      },
      "t_uint64": {
        "encoding": "inplace",
        "label": "uint64",
        "numberOfBytes": "8"
      }
    }
  }
}